{
  "contractName": "SimpleCounter",
  "abi": [
    {
      "constant": true,
      "inputs": [],
      "name": "count",
      "outputs": [
        {
          "internalType": "uint256",
          "name": "",
          "type": "uint256"
        }
      ],
      "payable": false,
      "stateMutability": "view",
      "type": "function"
    },
    {
      "constant": false,
      "inputs": [],
      "name": "increment",
      "outputs": [],
      "payable": false,
      "stateMutability": "nonpayable",
      "type": "function"
    },
    {
      "constant": true,
      "inputs": [],
      "name": "getCount",
      "outputs": [
        {
          "internalType": "uint256",
          "name": "",
          "type": "uint256"
        }
      ],
      "payable": false,
      "stateMutability": "view",
      "type": "function"
    }
  ],
  "bytecode": "0x60806040526000805534801561001457600080fd5b5060d7806100236000396000f3fe6080604052348015600f57600080fd5b5060043610603c5760003560e01c806306661abd146041578063a87d942c14605d578063d09de08a146079575b600080fd5b60476081565b6040518082815260200191505060405180910390f35b60636087565b6040518082815260200191505060405180910390f35b607f6090565b005b60005481565b60008054905090565b6001600080828254019250508190555056fea265627a7a72315820d99e04df583bcea694224b22ebdef1c00484ab6ce689d846d1b6b767577c56c064736f6c63430005100032",
  "source": "// SPDX-License-Identifier: MIT\r\npragma solidity >=0.5.16;\r\n\r\ncontract SimpleCounter {\r\n\r\n  // Public variable of type unsigned int to keep the number of counts\r\n  uint256 public count = 0;\r\n\r\n  // Function that increments our counter\r\n  function increment() public {\r\n    count += 1;\r\n  }\r\n\r\n  // Not necessary getter to get the count value\r\n  function getCount() public view returns (uint256) {\r\n    return count;\r\n  }\r\n\r\n}\r\n",
  "sourcePath": "C:\\Users\\Ben\\Developer\\beta-finance-assignment\\contracts\\SimpleCounter.sol",
  "compiler": {
    "name": "solc",
    "version": "0.5.16+commit.9c3226ce.Emscripten.clang"
  },
  "schemaVersion": "3.4.3",
  "updatedAt": "2021-11-28T00:01:32.513Z",
  "networkType": "ethereum",
  "devdoc": {
    "methods": {}
  },
  "userdoc": {
    "methods": {}
  }
}